{"abi":[{"type":"constructor","inputs":[{"name":"admin","type":"address","internalType":"address"}],"stateMutability":"nonpayable"},{"type":"function","name":"addDAOMember","inputs":[{"name":"member","type":"address","internalType":"address"}],"outputs":[],"stateMutability":"nonpayable"},{"type":"function","name":"createProposal","inputs":[{"name":"disasterName","type":"string","internalType":"string"},{"name":"area","type":"tuple","internalType":"struct LocationDetails.Location","components":[{"name":"latitude","type":"string","internalType":"string"},{"name":"longitude","type":"string","internalType":"string"},{"name":"radius","type":"string","internalType":"string"}]},{"name":"fundAmount","type":"uint256","internalType":"uint256"},{"name":"image","type":"string","internalType":"string"}],"outputs":[{"name":"","type":"uint256","internalType":"uint256"}],"stateMutability":"nonpayable"},{"type":"function","name":"disasterReliefFactory","inputs":[],"outputs":[{"name":"","type":"address","internalType":"contract IDisasterReliefFactory"}],"stateMutability":"view"},{"type":"function","name":"fundEscrow","inputs":[],"outputs":[{"name":"","type":"address","internalType":"contract IFundEscrow"}],"stateMutability":"view"},{"type":"function","name":"getProposal","inputs":[{"name":"proposalId","type":"uint256","internalType":"uint256"}],"outputs":[{"name":"","type":"tuple","internalType":"struct IDAOGovernance.Proposal","components":[{"name":"id","type":"uint256","internalType":"uint256"},{"name":"proposer","type":"address","internalType":"address"},{"name":"disasterName","type":"string","internalType":"string"},{"name":"location","type":"tuple","internalType":"struct LocationDetails.Location","components":[{"name":"latitude","type":"string","internalType":"string"},{"name":"longitude","type":"string","internalType":"string"},{"name":"radius","type":"string","internalType":"string"}]},{"name":"fundsRequested","type":"uint256","internalType":"uint256"},{"name":"startTime","type":"uint256","internalType":"uint256"},{"name":"endTime","type":"uint256","internalType":"uint256"},{"name":"forVotes","type":"uint256","internalType":"uint256"},{"name":"againstVotes","type":"uint256","internalType":"uint256"},{"name":"image","type":"string","internalType":"string"},{"name":"state","type":"uint8","internalType":"enum IDAOGovernance.ProposalState"}]}],"stateMutability":"view"},{"type":"function","name":"getProposalStatus","inputs":[{"name":"proposalId","type":"uint256","internalType":"uint256"}],"outputs":[{"name":"","type":"uint8","internalType":"enum IDAOGovernance.ProposalState"}],"stateMutability":"view"},{"type":"function","name":"hasVoted","inputs":[{"name":"proposalId","type":"uint256","internalType":"uint256"},{"name":"voter","type":"address","internalType":"address"}],"outputs":[{"name":"","type":"bool","internalType":"bool"}],"stateMutability":"view"},{"type":"function","name":"isAdmin","inputs":[{"name":"","type":"address","internalType":"address"}],"outputs":[{"name":"","type":"bool","internalType":"bool"}],"stateMutability":"view"},{"type":"function","name":"isDAOMember","inputs":[{"name":"","type":"address","internalType":"address"}],"outputs":[{"name":"","type":"bool","internalType":"bool"}],"stateMutability":"view"},{"type":"function","name":"memberCount","inputs":[],"outputs":[{"name":"","type":"uint256","internalType":"uint256"}],"stateMutability":"view"},{"type":"function","name":"proposalCount","inputs":[],"outputs":[{"name":"","type":"uint256","internalType":"uint256"}],"stateMutability":"view"},{"type":"function","name":"removeDAOMember","inputs":[{"name":"member","type":"address","internalType":"address"}],"outputs":[],"stateMutability":"nonpayable"},{"type":"function","name":"setDisasterReliefFactory","inputs":[{"name":"factory","type":"address","internalType":"address"}],"outputs":[],"stateMutability":"nonpayable"},{"type":"function","name":"setFundEscrow","inputs":[{"name":"fundEscrowAddress","type":"address","internalType":"address"}],"outputs":[],"stateMutability":"nonpayable"},{"type":"function","name":"totalMembers","inputs":[],"outputs":[{"name":"","type":"uint256","internalType":"uint256"}],"stateMutability":"view"},{"type":"function","name":"vote","inputs":[{"name":"proposalId","type":"uint256","internalType":"uint256"},{"name":"support","type":"bool","internalType":"bool"}],"outputs":[],"stateMutability":"nonpayable"},{"type":"function","name":"votingPeriod","inputs":[],"outputs":[{"name":"","type":"uint256","internalType":"uint256"}],"stateMutability":"view"},{"type":"event","name":"ProposalCreated","inputs":[{"name":"proposalId","type":"uint256","indexed":true,"internalType":"uint256"},{"name":"disasterName","type":"string","indexed":false,"internalType":"string"},{"name":"location","type":"tuple","indexed":false,"internalType":"struct LocationDetails.Location","components":[{"name":"latitude","type":"string","internalType":"string"},{"name":"longitude","type":"string","internalType":"string"},{"name":"radius","type":"string","internalType":"string"}]},{"name":"fundAmount","type":"uint256","indexed":false,"internalType":"uint256"}],"anonymous":false},{"type":"event","name":"ProposalExecuted","inputs":[{"name":"proposalId","type":"uint256","indexed":true,"internalType":"uint256"},{"name":"disasterReliefAddress","type":"address","indexed":false,"internalType":"address"}],"anonymous":false},{"type":"event","name":"Voted","inputs":[{"name":"proposalId","type":"uint256","indexed":true,"internalType":"uint256"},{"name":"voter","type":"address","indexed":false,"internalType":"address"},{"name":"support","type":"bool","indexed":false,"internalType":"bool"}],"anonymous":false}],"bytecode":{"object":"0x60806040526202a300600655348015610016575f5ffd5b50604051611cdb380380611cdb833981016040819052610035916100cc565b6001600160a01b03811661008f5760405162461bcd60e51b815260206004820152601c60248201527f41646d696e20616464726573732063616e6e6f74206265207a65726f00000000604482015260640160405180910390fd5b6001600160a01b03165f908152602081815260408083208054600160ff1991821681179092559281905292208054909116821790556002556100f9565b5f602082840312156100dc575f5ffd5b81516001600160a01b03811681146100f2575f5ffd5b9392505050565b611bd5806101065f395ff3fe608060405234801561000f575f5ffd5b5060043610610106575f3560e01c80639a11eb4e1161009e578063c7f758a81161006e578063c7f758a814610249578063c9d27afe14610269578063d686f4591461027c578063da35c6641461028f578063dde0195514610297575f5ffd5b80639a11eb4e146101ee578063a5d737ac14610201578063b1e44d8f14610214578063b89e1f9214610236575f5ffd5b8063378ad655116100d9578063378ad65514610175578063401853b7146101a057806343859632146101d257806376e92559146101e5575f5ffd5b8063012fedd91461010a57806302a251a31461011f57806311aee3801461013b57806324d7806c14610143575b5f5ffd5b61011d61011836600461143b565b6102aa565b005b61012860065481565b6040519081526020015b60405180910390f35b600254610128565b61016561015136600461143b565b5f6020819052908152604090205460ff1681565b6040519015158152602001610132565b600754610188906001600160a01b031681565b6040516001600160a01b039091168152602001610132565b6101c56101ae36600461145d565b5f908152600460205260409020600c015460ff1690565b60405161013291906114a8565b6101656101e03660046114b6565b610310565b61012860025481565b6101286101fc3660046115ac565b61033c565b600854610188906001600160a01b031681565b61016561022236600461143b565b60016020525f908152604090205460ff1681565b61011d61024436600461143b565b610563565b61025c61025736600461145d565b6105c1565b604051610132919061174d565b61011d610277366004611820565b6109a5565b61011d61028a36600461143b565b610bbf565b600354610128565b61011d6102a536600461143b565b610c42565b335f9081526020819052604090205460ff166102e15760405162461bcd60e51b81526004016102d890611847565b60405180910390fd5b6008546001600160a01b031661030d57600880546001600160a01b0319166001600160a01b0383161790555b50565b5f8281526005602090815260408083206001600160a01b038516845290915290205460ff165b92915050565b335f9081526001602052604081205460ff1661038d5760405162461bcd60e51b815260206004820152601060248201526f2737ba1030902220a79036b2b6b132b960811b60448201526064016102d8565b5f60035f815461039c90611881565b9190508190559050604051806101600160405280828152602001336001600160a01b03168152602001878152602001868152602001858152602001428152602001600654426103eb9190611899565b81526020015f81526020015f81526020018481526020015f600281111561041457610414611474565b90525f8281526004602090815260409182902083518155908301516001820180546001600160a01b0319166001600160a01b039092169190911790559082015160028201906104639082611930565b50606082015180516003830190819061047c9082611930565b50602082015160018201906104919082611930565b50604082015160028201906104a69082611930565b5050506080820151600682015560a0820151600782015560c0820151600882015560e08201516009820155610100820151600a820155610120820151600b8201906104f19082611930565b50610140820151600c8201805460ff1916600183600281111561051657610516611474565b0217905550905050807f9ceffc35e0d7b90219135e9cea610e462edcd066c3dc2e4e4693286ae9c07617878787604051610552939291906119eb565b60405180910390a295945050505050565b335f9081526020819052604090205460ff166105915760405162461bcd60e51b81526004016102d890611847565b6007546001600160a01b031661030d57600780546001600160a01b0383166001600160a01b031990911617905550565b6105c961139a565b5f82815260046020526040812054900361061e5760405162461bcd60e51b8152602060048201526016602482015275141c9bdc1bdcd85b08111bd95cdb89dd08195e1a5cdd60521b60448201526064016102d8565b5f828152600460209081526040918290208251610160810184528154815260018201546001600160a01b0316928101929092526002810180549293919291840191610668906118ac565b80601f0160208091040260200160405190810160405280929190818152602001828054610694906118ac565b80156106df5780601f106106b6576101008083540402835291602001916106df565b820191905f5260205f20905b8154815290600101906020018083116106c257829003601f168201915b50505050508152602001600382016040518060600160405290815f82018054610707906118ac565b80601f0160208091040260200160405190810160405280929190818152602001828054610733906118ac565b801561077e5780601f106107555761010080835404028352916020019161077e565b820191905f5260205f20905b81548152906001019060200180831161076157829003601f168201915b50505050508152602001600182018054610797906118ac565b80601f01602080910402602001604051908101604052809291908181526020018280546107c3906118ac565b801561080e5780601f106107e55761010080835404028352916020019161080e565b820191905f5260205f20905b8154815290600101906020018083116107f157829003601f168201915b50505050508152602001600282018054610827906118ac565b80601f0160208091040260200160405190810160405280929190818152602001828054610853906118ac565b801561089e5780601f106108755761010080835404028352916020019161089e565b820191905f5260205f20905b81548152906001019060200180831161088157829003601f168201915b505050505081525050815260200160068201548152602001600782015481526020016008820154815260200160098201548152602001600a8201548152602001600b820180546108ed906118ac565b80601f0160208091040260200160405190810160405280929190818152602001828054610919906118ac565b80156109645780601f1061093b57610100808354040283529160200191610964565b820191905f5260205f20905b81548152906001019060200180831161094757829003601f168201915b5050509183525050600c82015460209091019060ff16600281111561098b5761098b611474565b600281111561099c5761099c611474565b90525092915050565b335f9081526001602052604090205460ff166109f65760405162461bcd60e51b815260206004820152601060248201526f2737ba1030902220a79036b2b6b132b960811b60448201526064016102d8565b5f82815260046020526040812090600c82015460ff166002811115610a1d57610a1d611474565b14610a605760405162461bcd60e51b815260206004820152601360248201527250726f706f73616c204e6f742041637469766560681b60448201526064016102d8565b80600801544210610ab35760405162461bcd60e51b815260206004820152601760248201527f566f74696e6720706572696f642068617320656e64656400000000000000000060448201526064016102d8565b5f83815260056020908152604080832033845290915290205460ff1615610b0c5760405162461bcd60e51b815260206004820152600d60248201526c105b1c9958591e481d9bdd1959609a1b60448201526064016102d8565b5f8381526005602090815260408083203384529091529020805460ff191660011790558115610b6757600981018054905f610b4683611881565b9190505550610b5483610cc1565b15610b6257610b62836110e7565b610b7e565b600a81018054905f610b7883611881565b91905055505b60408051338152831515602082015284917ff2913dbe661ee2acc4a046d8fbcdc792373bda34c41c6086484b5345e5785e5f910160405180910390a2505050565b335f9081526020819052604090205460ff16610bed5760405162461bcd60e51b81526004016102d890611847565b6001600160a01b0381165f9081526001602052604090205460ff161561030d576001600160a01b0381165f908152600160205260408120805460ff191690556002805491610c3a83611a20565b919050555050565b335f9081526020819052604090205460ff16610c705760405162461bcd60e51b81526004016102d890611847565b6001600160a01b0381165f9081526001602052604090205460ff1661030d576001600160a01b0381165f9081526001602081905260408220805460ff191690911790556002805491610c3a83611881565b5f8181526004602090815260408083208151610160810183528154815260018201546001600160a01b03169381019390935260028101805485949384019190610d09906118ac565b80601f0160208091040260200160405190810160405280929190818152602001828054610d35906118ac565b8015610d805780601f10610d5757610100808354040283529160200191610d80565b820191905f5260205f20905b815481529060010190602001808311610d6357829003601f168201915b50505050508152602001600382016040518060600160405290815f82018054610da8906118ac565b80601f0160208091040260200160405190810160405280929190818152602001828054610dd4906118ac565b8015610e1f5780601f10610df657610100808354040283529160200191610e1f565b820191905f5260205f20905b815481529060010190602001808311610e0257829003601f168201915b50505050508152602001600182018054610e38906118ac565b80601f0160208091040260200160405190810160405280929190818152602001828054610e64906118ac565b8015610eaf5780601f10610e8657610100808354040283529160200191610eaf565b820191905f5260205f20905b815481529060010190602001808311610e9257829003601f168201915b50505050508152602001600282018054610ec8906118ac565b80601f0160208091040260200160405190810160405280929190818152602001828054610ef4906118ac565b8015610f3f5780601f10610f1657610100808354040283529160200191610f3f565b820191905f5260205f20905b815481529060010190602001808311610f2257829003601f168201915b505050505081525050815260200160068201548152602001600782015481526020016008820154815260200160098201548152602001600a8201548152602001600b82018054610f8e906118ac565b80601f0160208091040260200160405190810160405280929190818152602001828054610fba906118ac565b80156110055780601f10610fdc57610100808354040283529160200191611005565b820191905f5260205f20905b815481529060010190602001808311610fe857829003601f168201915b5050509183525050600c82015460209091019060ff16600281111561102c5761102c611474565b600281111561103d5761103d611474565b90525090505f816101400151600281111561105a5761105a611474565b146110a05760405162461bcd60e51b815260206004820152601660248201527550726f706f73616c206973204e6f742041637469766560501b60448201526064016102d8565b6110a861136e565b8160e00151106110bb5750600192915050565b6110c361136e565b816101000151106110df5760026101409190910152505f919050565b505f92915050565b5f81815260046020526040812090600c82015460ff16600281111561110e5761110e611474565b1461115b5760405162461bcd60e51b815260206004820152601760248201527f50726f706f73616c20646f6573206e6f7420657869737400000000000000000060448201526064016102d8565b600c8101805460ff19166001179055600754600682015460405163e68d61bf60e01b81525f926001600160a01b03169163e68d61bf916111b79160028701916003880191610e1091829161070891620151809190600401611ab4565b6020604051808303815f875af11580156111d3573d5f5f3e3d5ffd5b505050506040513d601f19601f820116820180604052508101906111f79190611b37565b90505f60085f9054906101000a90046001600160a01b03166001600160a01b03166312065fe06040518163ffffffff1660e01b8152600401602060405180830381865afa15801561124a573d5f5f3e3d5ffd5b505050506040513d601f19601f8201168201806040525081019061126e9190611b52565b905082600601548110156112c45760405162461bcd60e51b815260206004820152601c60248201527f496e73756666696369656e742066756e647320696e20657363726f770000000060448201526064016102d8565b6008546006840154604051630c4f69ab60e11b81526001600160a01b038581166004830152602482019290925291169063189ed356906044015f604051808303815f87803b158015611314575f5ffd5b505af1158015611326573d5f5f3e3d5ffd5b50506040516001600160a01b03851681528692507f9c85b616f29fca57a17eafe71cf9ff82ffef41766e2cf01ea7f8f7878dd3ec24915060200160405180910390a250505050565b5f6064600254603c6113809190611b69565b61138b906063611899565b6113959190611b80565b905090565b6040518061016001604052805f81526020015f6001600160a01b03168152602001606081526020016113e660405180606001604052806060815260200160608152602001606081525090565b81526020015f81526020015f81526020015f81526020015f81526020015f8152602001606081526020015f600281111561142257611422611474565b905290565b6001600160a01b038116811461030d575f5ffd5b5f6020828403121561144b575f5ffd5b813561145681611427565b9392505050565b5f6020828403121561146d575f5ffd5b5035919050565b634e487b7160e01b5f52602160045260245ffd5b600381106114a457634e487b7160e01b5f52602160045260245ffd5b9052565b602081016103368284611488565b5f5f604083850312156114c7575f5ffd5b8235915060208301356114d981611427565b809150509250929050565b634e487b7160e01b5f52604160045260245ffd5b6040516060810167ffffffffffffffff8111828210171561151b5761151b6114e4565b60405290565b5f82601f830112611530575f5ffd5b813567ffffffffffffffff81111561154a5761154a6114e4565b604051601f8201601f19908116603f0116810167ffffffffffffffff81118282101715611579576115796114e4565b604052818152838201602001851015611590575f5ffd5b816020850160208301375f918101602001919091529392505050565b5f5f5f5f608085870312156115bf575f5ffd5b843567ffffffffffffffff8111156115d5575f5ffd5b6115e187828801611521565b945050602085013567ffffffffffffffff8111156115fd575f5ffd5b85016060818803121561160e575f5ffd5b6116166114f8565b813567ffffffffffffffff81111561162c575f5ffd5b61163889828501611521565b825250602082013567ffffffffffffffff811115611654575f5ffd5b61166089828501611521565b602083015250604082013567ffffffffffffffff81111561167f575f5ffd5b61168b89828501611521565b60408381019190915291955050860135925050606085013567ffffffffffffffff8111156116b7575f5ffd5b6116c387828801611521565b91505092959194509250565b5f81518084528060208401602086015e5f602082860101526020601f19601f83011685010191505092915050565b5f81516060845261171160608501826116cf565b90506020830151848203602086015261172a82826116cf565b9150506040830151848203604086015261174482826116cf565b95945050505050565b60208152815160208201525f602083015161177360408401826001600160a01b03169052565b506040830151610160606084015261178f6101808401826116cf565b90506060840151601f198483030160808501526117ac82826116fd565b915050608084015160a084015260a084015160c084015260c084015160e084015260e0840151610100840152610100840151610120840152610120840151601f198483030161014085015261180182826116cf565b915050610140840151611818610160850182611488565b509392505050565b5f5f60408385031215611831575f5ffd5b82359150602083013580151581146114d9575f5ffd5b6020808252600c908201526b2737ba1030b71030b236b4b760a11b604082015260600190565b634e487b7160e01b5f52601160045260245ffd5b5f600182016118925761189261186d565b5060010190565b808201808211156103365761033661186d565b600181811c908216806118c057607f821691505b6020821081036118de57634e487b7160e01b5f52602260045260245ffd5b50919050565b601f82111561192b57805f5260205f20601f840160051c810160208510156119095750805b601f840160051c820191505b81811015611928575f8155600101611915565b50505b505050565b815167ffffffffffffffff81111561194a5761194a6114e4565b61195e8161195884546118ac565b846118e4565b6020601f821160018114611990575f83156119795750848201515b5f19600385901b1c1916600184901b178455611928565b5f84815260208120601f198516915b828110156119bf578785015182556020948501946001909201910161199f565b50848210156119dc57868401515f19600387901b60f8161c191681555b50505050600190811b01905550565b606081525f6119fd60608301866116cf565b8281036020840152611a0f81866116fd565b915050826040830152949350505050565b5f81611a2e57611a2e61186d565b505f190190565b5f8154611a41816118ac565b808552600182168015611a5b5760018114611a7757611aab565b60ff1983166020870152602082151560051b8701019350611aab565b845f5260205f205f5b83811015611aa25781546020828a010152600182019150602081019050611a80565b87016020019450505b50505092915050565b60e081525f611ac660e083018a611a35565b828103602084015260608152611adf606082018a611a35565b8181036020830152611af48160018c01611a35565b90508181036040830152611b0b8160028c01611a35565b60408501999099525050506060810194909452608084019290925260a083015260c09091015292915050565b5f60208284031215611b47575f5ffd5b815161145681611427565b5f60208284031215611b62575f5ffd5b5051919050565b80820281158282048414176103365761033661186d565b5f82611b9a57634e487b7160e01b5f52601260045260245ffd5b50049056fea26469706673582212203bf292406627ac6f508e5bde5c5f38232b175bd3f77a9be4049831cc3e2c200764736f6c634300081c0033","linkReferences":{}},"methodIdentifiers":{"addDAOMember(address)":"dde01955","createProposal(string,(string,string,string),uint256,string)":"9a11eb4e","disasterReliefFactory()":"378ad655","fundEscrow()":"a5d737ac","getProposal(uint256)":"c7f758a8","getProposalStatus(uint256)":"401853b7","hasVoted(uint256,address)":"43859632","isAdmin(address)":"24d7806c","isDAOMember(address)":"b1e44d8f","memberCount()":"11aee380","proposalCount()":"da35c664","removeDAOMember(address)":"d686f459","setDisasterReliefFactory(address)":"b89e1f92","setFundEscrow(address)":"012fedd9","totalMembers()":"76e92559","vote(uint256,bool)":"c9d27afe","votingPeriod()":"02a251a3"},"id":39}