{"abi":[{"type":"constructor","inputs":[],"stateMutability":"nonpayable"},{"type":"function","name":"_distasterReliefFacotry","inputs":[],"outputs":[{"name":"","type":"address","internalType":"contract DisasterReliefFactory"}],"stateMutability":"view"},{"type":"function","name":"approve","inputs":[{"name":"to","type":"address","internalType":"address"},{"name":"tokenId","type":"uint256","internalType":"uint256"}],"outputs":[],"stateMutability":"nonpayable"},{"type":"function","name":"balanceOf","inputs":[{"name":"owner","type":"address","internalType":"address"}],"outputs":[{"name":"","type":"uint256","internalType":"uint256"}],"stateMutability":"view"},{"type":"function","name":"getApproved","inputs":[{"name":"tokenId","type":"uint256","internalType":"uint256"}],"outputs":[{"name":"","type":"address","internalType":"address"}],"stateMutability":"view"},{"type":"function","name":"isApprovedForAll","inputs":[{"name":"owner","type":"address","internalType":"address"},{"name":"operator","type":"address","internalType":"address"}],"outputs":[{"name":"","type":"bool","internalType":"bool"}],"stateMutability":"view"},{"type":"function","name":"mint","inputs":[{"name":"to","type":"address","internalType":"address"}],"outputs":[{"name":"","type":"uint256","internalType":"uint256"}],"stateMutability":"nonpayable"},{"type":"function","name":"name","inputs":[],"outputs":[{"name":"","type":"string","internalType":"string"}],"stateMutability":"view"},{"type":"function","name":"owner","inputs":[],"outputs":[{"name":"","type":"address","internalType":"address"}],"stateMutability":"view"},{"type":"function","name":"ownerOf","inputs":[{"name":"tokenId","type":"uint256","internalType":"uint256"}],"outputs":[{"name":"","type":"address","internalType":"address"}],"stateMutability":"view"},{"type":"function","name":"safeTransferFrom","inputs":[{"name":"from","type":"address","internalType":"address"},{"name":"to","type":"address","internalType":"address"},{"name":"tokenId","type":"uint256","internalType":"uint256"}],"outputs":[],"stateMutability":"nonpayable"},{"type":"function","name":"safeTransferFrom","inputs":[{"name":"from","type":"address","internalType":"address"},{"name":"to","type":"address","internalType":"address"},{"name":"tokenId","type":"uint256","internalType":"uint256"},{"name":"data","type":"bytes","internalType":"bytes"}],"outputs":[],"stateMutability":"nonpayable"},{"type":"function","name":"setAllowedContract","inputs":[{"name":"disasterReliefFactory","type":"address","internalType":"address"}],"outputs":[],"stateMutability":"nonpayable"},{"type":"function","name":"setApprovalForAll","inputs":[{"name":"operator","type":"address","internalType":"address"},{"name":"approved","type":"bool","internalType":"bool"}],"outputs":[],"stateMutability":"nonpayable"},{"type":"function","name":"setBaseURI","inputs":[{"name":"newBaseURI","type":"string","internalType":"string"}],"outputs":[],"stateMutability":"nonpayable"},{"type":"function","name":"supportsInterface","inputs":[{"name":"interfaceId","type":"bytes4","internalType":"bytes4"}],"outputs":[{"name":"","type":"bool","internalType":"bool"}],"stateMutability":"view"},{"type":"function","name":"symbol","inputs":[],"outputs":[{"name":"","type":"string","internalType":"string"}],"stateMutability":"view"},{"type":"function","name":"tokenURI","inputs":[{"name":"tokenId","type":"uint256","internalType":"uint256"}],"outputs":[{"name":"","type":"string","internalType":"string"}],"stateMutability":"view"},{"type":"function","name":"totalSupply","inputs":[],"outputs":[{"name":"","type":"uint256","internalType":"uint256"}],"stateMutability":"view"},{"type":"function","name":"transferFrom","inputs":[{"name":"from","type":"address","internalType":"address"},{"name":"to","type":"address","internalType":"address"},{"name":"tokenId","type":"uint256","internalType":"uint256"}],"outputs":[],"stateMutability":"nonpayable"},{"type":"event","name":"Approval","inputs":[{"name":"owner","type":"address","indexed":true,"internalType":"address"},{"name":"approved","type":"address","indexed":true,"internalType":"address"},{"name":"tokenId","type":"uint256","indexed":true,"internalType":"uint256"}],"anonymous":false},{"type":"event","name":"ApprovalForAll","inputs":[{"name":"owner","type":"address","indexed":true,"internalType":"address"},{"name":"operator","type":"address","indexed":true,"internalType":"address"},{"name":"approved","type":"bool","indexed":false,"internalType":"bool"}],"anonymous":false},{"type":"event","name":"BadgeMinted","inputs":[{"name":"to","type":"address","indexed":true,"internalType":"address"},{"name":"tokenId","type":"uint256","indexed":true,"internalType":"uint256"}],"anonymous":false},{"type":"event","name":"Transfer","inputs":[{"name":"from","type":"address","indexed":true,"internalType":"address"},{"name":"to","type":"address","indexed":true,"internalType":"address"},{"name":"tokenId","type":"uint256","indexed":true,"internalType":"uint256"}],"anonymous":false},{"type":"error","name":"ERC721IncorrectOwner","inputs":[{"name":"sender","type":"address","internalType":"address"},{"name":"tokenId","type":"uint256","internalType":"uint256"},{"name":"owner","type":"address","internalType":"address"}]},{"type":"error","name":"ERC721InsufficientApproval","inputs":[{"name":"operator","type":"address","internalType":"address"},{"name":"tokenId","type":"uint256","internalType":"uint256"}]},{"type":"error","name":"ERC721InvalidApprover","inputs":[{"name":"approver","type":"address","internalType":"address"}]},{"type":"error","name":"ERC721InvalidOperator","inputs":[{"name":"operator","type":"address","internalType":"address"}]},{"type":"error","name":"ERC721InvalidOwner","inputs":[{"name":"owner","type":"address","internalType":"address"}]},{"type":"error","name":"ERC721InvalidReceiver","inputs":[{"name":"receiver","type":"address","internalType":"address"}]},{"type":"error","name":"ERC721InvalidSender","inputs":[{"name":"sender","type":"address","internalType":"address"}]},{"type":"error","name":"ERC721NonexistentToken","inputs":[{"name":"tokenId","type":"uint256","internalType":"uint256"}]}],"bytecode":{"object":"0x608060405234801561000f575f5ffd5b50604051806040016040528060128152602001714469736173746572446f6e6f72426164676560701b8152506040518060400160405280600381526020016222222160e91b815250815f90816100659190610124565b5060016100728282610124565b5050600780546001600160a01b03191633179055506101de565b634e487b7160e01b5f52604160045260245ffd5b600181811c908216806100b457607f821691505b6020821081036100d257634e487b7160e01b5f52602260045260245ffd5b50919050565b601f82111561011f57805f5260205f20601f840160051c810160208510156100fd5750805b601f840160051c820191505b8181101561011c575f8155600101610109565b50505b505050565b81516001600160401b0381111561013d5761013d61008c565b6101518161014b84546100a0565b846100d8565b6020601f821160018114610183575f831561016c5750848201515b5f19600385901b1c1916600184901b17845561011c565b5f84815260208120601f198516915b828110156101b25787850151825560209485019460019092019101610192565b50848210156101cf57868401515f19600387901b60f8161c191681555b50505050600190811b01905550565b6113cc806101eb5f395ff3fe608060405234801561000f575f5ffd5b506004361061011c575f3560e01c80636a627842116100a9578063a22cb4651161006e578063a22cb4651461024f578063b88d4fde14610262578063c5b3c09414610275578063c87b56dd14610288578063e985e9c51461029b575f5ffd5b80636a627842146101fb57806370a082311461020e57806386e32ed0146102215780638da5cb5b1461023457806395d89b4114610247575f5ffd5b806318160ddd116100ef57806318160ddd1461019d57806323b872dd146101af57806342842e0e146101c257806355f804b3146101d55780636352211e146101e8575f5ffd5b806301ffc9a71461012057806306fdde0314610148578063081812fc1461015d578063095ea7b314610188575b5f5ffd5b61013361012e366004610ee1565b6102ae565b60405190151581526020015b60405180910390f35b6101506102ff565b60405161013f9190610f2a565b61017061016b366004610f3c565b61038e565b6040516001600160a01b03909116815260200161013f565b61019b610196366004610f69565b6103b5565b005b6006545b60405190815260200161013f565b61019b6101bd366004610f91565b6103c4565b61019b6101d0366004610f91565b610452565b61019b6101e3366004611056565b610471565b6101706101f6366004610f3c565b6104c3565b6101a161020936600461109b565b6104cd565b6101a161021c36600461109b565b61067e565b61019b61022f36600461109b565b6106c3565b600754610170906001600160a01b031681565b61015061072b565b61019b61025d3660046110c1565b61073a565b61019b6102703660046110f6565b610745565b600854610170906001600160a01b031681565b610150610296366004610f3c565b61075d565b6101336102a936600461116d565b6107c2565b5f6001600160e01b031982166380ac58cd60e01b14806102de57506001600160e01b03198216635b5e139f60e01b145b806102f957506301ffc9a760e01b6001600160e01b03198316145b92915050565b60605f805461030d9061119e565b80601f01602080910402602001604051908101604052809291908181526020018280546103399061119e565b80156103845780601f1061035b57610100808354040283529160200191610384565b820191905f5260205f20905b81548152906001019060200180831161036757829003601f168201915b5050505050905090565b5f610398826107ef565b505f828152600460205260409020546001600160a01b03166102f9565b6103c0828233610827565b5050565b6001600160a01b0382166103f257604051633250574960e11b81525f60048201526024015b60405180910390fd5b5f6103fe838333610834565b9050836001600160a01b0316816001600160a01b03161461044c576040516364283d7b60e01b81526001600160a01b03808616600483015260248201849052821660448201526064016103e9565b50505050565b61046c83838360405180602001604052805f815250610745565b505050565b6007546001600160a01b031633146104b75760405162461bcd60e51b81526020600482015260096024820152682737ba1037bbb732b960b91b60448201526064016103e9565b60096103c0828261121a565b5f6102f982610926565b6008546040516312fcfa7560e11b81523360048201525f916001600160a01b0316906325f9f4ea90602401602060405180830381865afa158015610513573d5f5f3e3d5ffd5b505050506040513d601f19601f8201168201806040525081019061053791906112d5565b61057a5760405162461bcd60e51b815260206004820152601460248201527313db9b1e48195cd8dc9bddc818d85b881b5a5b9d60621b60448201526064016103e9565b6008546040516312fcfa7560e11b81523360048201526001600160a01b03909116906325f9f4ea90602401602060405180830381865afa1580156105c0573d5f5f3e3d5ffd5b505050506040513d601f19601f820116820180604052508101906105e491906112d5565b6106215760405162461bcd60e51b815260206004820152600e60248201526d139bdd08185d5d1a1bdc9a5e995960921b60448201526064016103e9565b5f60065f8154610630906112f0565b918290555090506106418382610930565b60405181906001600160a01b038516907fc5e5b314108c1f776c2302351b8278910ddb812b122b2717b1bc973146145e9a905f90a390505b919050565b5f6001600160a01b0382166106a8576040516322718ad960e21b81525f60048201526024016103e9565b506001600160a01b03165f9081526003602052604090205490565b6007546001600160a01b031633146107095760405162461bcd60e51b81526020600482015260096024820152682737ba1037bbb732b960b91b60448201526064016103e9565b600880546001600160a01b0319166001600160a01b0392909216919091179055565b60606001805461030d9061119e565b6103c0338383610949565b6107508484846103c4565b61044c33858585856109e7565b6060610768826107ef565b505f610772610b0f565b90505f8151116107905760405180602001604052805f8152506107bb565b8061079a84610b1e565b6040516020016107ab92919061132b565b6040516020818303038152906040525b9392505050565b6001600160a01b039182165f90815260056020908152604080832093909416825291909152205460ff1690565b5f818152600260205260408120546001600160a01b0316806102f957604051637e27328960e01b8152600481018490526024016103e9565b61046c8383836001610bae565b5f828152600260205260408120546001600160a01b039081169083161561086057610860818486610cb2565b6001600160a01b0381161561089a5761087b5f855f5f610bae565b6001600160a01b0381165f90815260036020526040902080545f190190555b6001600160a01b038516156108c8576001600160a01b0385165f908152600360205260409020805460010190555b5f8481526002602052604080822080546001600160a01b0319166001600160a01b0389811691821790925591518793918516917fddf252ad1be2c89b69c2b068fc378daa952ba7f163c4a11628f55a4df523b3ef91a4949350505050565b5f6102f9826107ef565b6103c0828260405180602001604052805f815250610d16565b6001600160a01b03821661097b57604051630b61174360e31b81526001600160a01b03831660048201526024016103e9565b6001600160a01b038381165f81815260056020908152604080832094871680845294825291829020805460ff191686151590811790915591519182527f17307eab39ab6107e8899845ad3d59bd9653f200f220920489ca2b5937696c31910160405180910390a3505050565b6001600160a01b0383163b15610b0857604051630a85bd0160e11b81526001600160a01b0384169063150b7a0290610a2990889088908790879060040161133f565b6020604051808303815f875af1925050508015610a63575060408051601f3d908101601f19168201909252610a609181019061137b565b60015b610aca573d808015610a90576040519150601f19603f3d011682016040523d82523d5f602084013e610a95565b606091505b5080515f03610ac257604051633250574960e11b81526001600160a01b03851660048201526024016103e9565b805181602001fd5b6001600160e01b03198116630a85bd0160e11b14610b0657604051633250574960e11b81526001600160a01b03851660048201526024016103e9565b505b5050505050565b60606009805461030d9061119e565b60605f610b2a83610d2d565b60010190505f8167ffffffffffffffff811115610b4957610b49610fcb565b6040519080825280601f01601f191660200182016040528015610b73576020820181803683370190505b5090508181016020015b5f19016f181899199a1a9b1b9c1cb0b131b232b360811b600a86061a8153600a8504945084610b7d57509392505050565b8080610bc257506001600160a01b03821615155b15610c83575f610bd1846107ef565b90506001600160a01b03831615801590610bfd5750826001600160a01b0316816001600160a01b031614155b8015610c105750610c0e81846107c2565b155b15610c395760405163a9fbf51f60e01b81526001600160a01b03841660048201526024016103e9565b8115610c815783856001600160a01b0316826001600160a01b03167f8c5be1e5ebec7d5bd14f71427d1e84f3dd0314c0f7b2291e5b200ac8c7c3b92560405160405180910390a45b505b50505f90815260046020526040902080546001600160a01b0319166001600160a01b0392909216919091179055565b610cbd838383610e04565b61046c576001600160a01b038316610ceb57604051637e27328960e01b8152600481018290526024016103e9565b60405163177e802f60e01b81526001600160a01b0383166004820152602481018290526044016103e9565b610d208383610e68565b61046c335f8585856109e7565b5f8072184f03e93ff9f4daa797ed6e38ed64bf6a1f0160401b8310610d6b5772184f03e93ff9f4daa797ed6e38ed64bf6a1f0160401b830492506040015b6d04ee2d6d415b85acef81000000008310610d97576d04ee2d6d415b85acef8100000000830492506020015b662386f26fc100008310610db557662386f26fc10000830492506010015b6305f5e1008310610dcd576305f5e100830492506008015b6127108310610de157612710830492506004015b60648310610df3576064830492506002015b600a83106102f95760010192915050565b5f6001600160a01b03831615801590610e605750826001600160a01b0316846001600160a01b03161480610e3d5750610e3d84846107c2565b80610e6057505f828152600460205260409020546001600160a01b038481169116145b949350505050565b6001600160a01b038216610e9157604051633250574960e11b81525f60048201526024016103e9565b5f610e9d83835f610834565b90506001600160a01b0381161561046c576040516339e3563760e11b81525f60048201526024016103e9565b6001600160e01b031981168114610ede575f5ffd5b50565b5f60208284031215610ef1575f5ffd5b81356107bb81610ec9565b5f81518084528060208401602086015e5f602082860101526020601f19601f83011685010191505092915050565b602081525f6107bb6020830184610efc565b5f60208284031215610f4c575f5ffd5b5035919050565b80356001600160a01b0381168114610679575f5ffd5b5f5f60408385031215610f7a575f5ffd5b610f8383610f53565b946020939093013593505050565b5f5f5f60608486031215610fa3575f5ffd5b610fac84610f53565b9250610fba60208501610f53565b929592945050506040919091013590565b634e487b7160e01b5f52604160045260245ffd5b5f5f67ffffffffffffffff841115610ff957610ff9610fcb565b50604051601f19601f85018116603f0116810181811067ffffffffffffffff8211171561102857611028610fcb565b60405283815290508082840185101561103f575f5ffd5b838360208301375f60208583010152509392505050565b5f60208284031215611066575f5ffd5b813567ffffffffffffffff81111561107c575f5ffd5b8201601f8101841361108c575f5ffd5b610e6084823560208401610fdf565b5f602082840312156110ab575f5ffd5b6107bb82610f53565b8015158114610ede575f5ffd5b5f5f604083850312156110d2575f5ffd5b6110db83610f53565b915060208301356110eb816110b4565b809150509250929050565b5f5f5f5f60808587031215611109575f5ffd5b61111285610f53565b935061112060208601610f53565b925060408501359150606085013567ffffffffffffffff811115611142575f5ffd5b8501601f81018713611152575f5ffd5b61116187823560208401610fdf565b91505092959194509250565b5f5f6040838503121561117e575f5ffd5b61118783610f53565b915061119560208401610f53565b90509250929050565b600181811c908216806111b257607f821691505b6020821081036111d057634e487b7160e01b5f52602260045260245ffd5b50919050565b601f82111561046c57805f5260205f20601f840160051c810160208510156111fb5750805b601f840160051c820191505b81811015610b08575f8155600101611207565b815167ffffffffffffffff81111561123457611234610fcb565b61124881611242845461119e565b846111d6565b6020601f82116001811461127a575f83156112635750848201515b5f19600385901b1c1916600184901b178455610b08565b5f84815260208120601f198516915b828110156112a95787850151825560209485019460019092019101611289565b50848210156112c657868401515f19600387901b60f8161c191681555b50505050600190811b01905550565b5f602082840312156112e5575f5ffd5b81516107bb816110b4565b5f6001820161130d57634e487b7160e01b5f52601160045260245ffd5b5060010190565b5f81518060208401855e5f93019283525090919050565b5f610e606113398386611314565b84611314565b6001600160a01b03858116825284166020820152604081018390526080606082018190525f9061137190830184610efc565b9695505050505050565b5f6020828403121561138b575f5ffd5b81516107bb81610ec956fea26469706673582212202872d780b1819275e73d38c1e144710dca754d50a0ee3522c1bd57c621d9d8b264736f6c634300081c0033","linkReferences":{}},"methodIdentifiers":{"_distasterReliefFacotry()":"c5b3c094","approve(address,uint256)":"095ea7b3","balanceOf(address)":"70a08231","getApproved(uint256)":"081812fc","isApprovedForAll(address,address)":"e985e9c5","mint(address)":"6a627842","name()":"06fdde03","owner()":"8da5cb5b","ownerOf(uint256)":"6352211e","safeTransferFrom(address,address,uint256)":"42842e0e","safeTransferFrom(address,address,uint256,bytes)":"b88d4fde","setAllowedContract(address)":"86e32ed0","setApprovalForAll(address,bool)":"a22cb465","setBaseURI(string)":"55f804b3","supportsInterface(bytes4)":"01ffc9a7","symbol()":"95d89b41","tokenURI(uint256)":"c87b56dd","totalSupply()":"18160ddd","transferFrom(address,address,uint256)":"23b872dd"},"id":40}