{"abi":[{"type":"constructor","inputs":[{"name":"_daoGov","type":"address","internalType":"address"},{"name":"_zkVerifier","type":"address","internalType":"address"},{"name":"_usdc","type":"address","internalType":"address"},{"name":"_donorBadge","type":"address","internalType":"address"}],"stateMutability":"nonpayable"},{"type":"function","name":"USDC","inputs":[],"outputs":[{"name":"","type":"address","internalType":"address"}],"stateMutability":"view"},{"type":"function","name":"daoGov","inputs":[],"outputs":[{"name":"","type":"address","internalType":"contract IDAOGovernance"}],"stateMutability":"view"},{"type":"function","name":"deployDisasterRelief","inputs":[{"name":"disasterName","type":"string","internalType":"string"},{"name":"area","type":"tuple","internalType":"struct LocationDetails.Location","components":[{"name":"latitude","type":"string","internalType":"string"},{"name":"longitude","type":"string","internalType":"string"},{"name":"radius","type":"string","internalType":"string"}]},{"name":"donationPeriod","type":"uint256","internalType":"uint256"},{"name":"registrationPeriod","type":"uint256","internalType":"uint256"},{"name":"waitingPeriod","type":"uint256","internalType":"uint256"},{"name":"distributionPeriod","type":"uint256","internalType":"uint256"},{"name":"initialFunds","type":"uint256","internalType":"uint256"}],"outputs":[{"name":"","type":"address","internalType":"address"}],"stateMutability":"nonpayable"},{"type":"function","name":"disasterReliefContracts","inputs":[{"name":"","type":"uint256","internalType":"uint256"}],"outputs":[{"name":"","type":"address","internalType":"address"}],"stateMutability":"view"},{"type":"function","name":"donorBadge","inputs":[],"outputs":[{"name":"","type":"address","internalType":"contract DisasterDonorBadge"}],"stateMutability":"view"},{"type":"function","name":"getAllProposals","inputs":[],"outputs":[{"name":"","type":"address[]","internalType":"address[]"}],"stateMutability":"view"},{"type":"function","name":"getProposal","inputs":[{"name":"_index","type":"uint256","internalType":"uint256"}],"outputs":[{"name":"","type":"address","internalType":"address"}],"stateMutability":"view"},{"type":"function","name":"isDisasterRelief","inputs":[{"name":"","type":"address","internalType":"address"}],"outputs":[{"name":"","type":"bool","internalType":"bool"}],"stateMutability":"view"},{"type":"function","name":"owner","inputs":[],"outputs":[{"name":"","type":"address","internalType":"address"}],"stateMutability":"view"},{"type":"function","name":"setZKVerifier","inputs":[{"name":"_zkVerifier","type":"address","internalType":"address"}],"outputs":[],"stateMutability":"nonpayable"},{"type":"function","name":"zkVerifier","inputs":[],"outputs":[{"name":"","type":"address","internalType":"address"}],"stateMutability":"view"},{"type":"event","name":"DisasterReliefDeployed","inputs":[{"name":"disasterReliefAddress","type":"address","indexed":false,"internalType":"address"},{"name":"disasterName","type":"string","indexed":false,"internalType":"string"},{"name":"initialFunds","type":"uint256","indexed":false,"internalType":"uint256"}],"anonymous":false}],"bytecode":{"object":"0x60a060405234801561000f575f5ffd5b5060405161210038038061210083398101604081905261002e9161008c565b600280546001600160a01b031990811633179091555f80546001600160a01b039687169083161790559184166080526003805491909416911617909155506100dd565b80516001600160a01b0381168114610087575f5ffd5b919050565b5f5f5f5f6080858703121561009f575f5ffd5b6100a885610071565b93506100b660208601610071565b92506100c460408601610071565b91506100d260608601610071565b905092959194509250565b6080516120046100fc5f395f8181610136015261037501526120045ff3fe608060405234801561000f575f5ffd5b50600436106100a6575f3560e01c80638da5cb5b1161006e5780638da5cb5b14610158578063c50903461461016b578063c7f758a814610180578063cceb68f514610193578063d6df096d146101a8578063e68d61bf146101bb575f5ffd5b806308fc1034146100aa57806325f9f4ea146100da5780632764b7581461010c57806353d746e21461011e57806389a3027114610131575b5f5ffd5b6100bd6100b8366004610489565b6101ce565b6040516001600160a01b0390911681526020015b60405180910390f35b6100fc6100e83660046104a0565b60046020525f908152604090205460ff1681565b60405190151581526020016100d1565b5f546100bd906001600160a01b031681565b6003546100bd906001600160a01b031681565b6100bd7f000000000000000000000000000000000000000000000000000000000000000081565b6002546100bd906001600160a01b031681565b61017e6101793660046104a0565b6101f6565b005b6100bd61018e366004610489565b610263565b61019b610291565b6040516100d191906104cd565b6001546100bd906001600160a01b031681565b6100bd6101c93660046105e0565b6102f1565b600581815481106101dd575f80fd5b5f918252602090912001546001600160a01b0316905081565b6002546001600160a01b031633146102415760405162461bcd60e51b81526020600482015260096024820152682737ba1037bbb732b960b91b60448201526064015b60405180910390fd5b600180546001600160a01b0319166001600160a01b0392909216919091179055565b5f60058281548110610277576102776106f9565b5f918252602090912001546001600160a01b031692915050565b606060058054806020026020016040519081016040528092919081815260200182805480156102e757602002820191905f5260205f20905b81546001600160a01b031681526001909101906020018083116102c9575b5050505050905090565b5f80546001600160a01b0316331461034b5760405162461bcd60e51b815260206004820152601b60248201527f4f6e6c792066756e6420657363726f772063616e206465706c6f7900000000006044820152606401610238565b6003546001546040515f928b928b928b928b928b928b928b926001600160a01b03918216929116907f00000000000000000000000000000000000000000000000000000000000000009061039e9061047c565b6103b19a9998979695949392919061073b565b604051809103905ff0801580156103ca573d5f5f3e3d5ffd5b506001600160a01b0381165f81815260046020526040808220805460ff191660019081179091556005805491820181559092527f036b6384b5eca791c62761152d0c79bb0604c104a5fb6f4eb0703f3154bb3db090910180546001600160a01b031916909217909155519091507fcada45ae46f70fa87a4e011995dc8187e6a179a943efe550b5402a2bdcb1638a906104689083908c908790610804565b60405180910390a198975050505050505050565b6117978061083883390190565b5f60208284031215610499575f5ffd5b5035919050565b5f602082840312156104b0575f5ffd5b81356001600160a01b03811681146104c6575f5ffd5b9392505050565b602080825282518282018190525f918401906040840190835b8181101561050d5783516001600160a01b03168352602093840193909201916001016104e6565b509095945050505050565b634e487b7160e01b5f52604160045260245ffd5b6040516060810167ffffffffffffffff8111828210171561054f5761054f610518565b60405290565b5f82601f830112610564575f5ffd5b813567ffffffffffffffff81111561057e5761057e610518565b604051601f8201601f19908116603f0116810167ffffffffffffffff811182821017156105ad576105ad610518565b6040528181528382016020018510156105c4575f5ffd5b816020850160208301375f918101602001919091529392505050565b5f5f5f5f5f5f5f60e0888a0312156105f6575f5ffd5b873567ffffffffffffffff81111561060c575f5ffd5b6106188a828b01610555565b975050602088013567ffffffffffffffff811115610634575f5ffd5b88016060818b031215610645575f5ffd5b61064d61052c565b813567ffffffffffffffff811115610663575f5ffd5b61066f8c828501610555565b825250602082013567ffffffffffffffff81111561068b575f5ffd5b6106978c828501610555565b602083015250604082013567ffffffffffffffff8111156106b6575f5ffd5b6106c28c828501610555565b604083810191909152999c919b505097890135986060810135986080820135985060a0820135975060c09091013595509350505050565b634e487b7160e01b5f52603260045260245ffd5b5f81518084528060208401602086015e5f602082860101526020601f19601f83011685010191505092915050565b61014081525f61074f61014083018d61070d565b82810360208401528b516060825261076a606083018261070d565b905060208d01518282036020840152610783828261070d565b91505060408d0151828203604084015261079d828261070d565b93505050508960408301528860608301528760808301528660a08301528560c08301526107d560e08301866001600160a01b03169052565b6001600160a01b0384166101008301526001600160a01b0383166101208301529b9a5050505050505050505050565b6001600160a01b03841681526060602082018190525f906108279083018561070d565b905082604083015294935050505056fe60a060405234801561000f575f5ffd5b5060405161179738038061179783398101604081905261002e91610279565b5f6100398b826103db565b5088518990600190819061004d90826103db565b506020820151600182019061006290826103db565b506040820151600282019061007790826103db565b50610086915089905042610495565b6005819055610096908890610495565b60068190556100a6908790610495565b60078190556100b6908690610495565b6008556004805460ff19169055600993909355600e80546001600160a01b03199081166001600160a01b0394851617909155600f805490911691831691909117905516608052506104ba945050505050565b634e487b7160e01b5f52604160045260245ffd5b5f82601f83011261012b575f5ffd5b81516001600160401b0381111561014457610144610108565b604051601f8201601f19908116603f011681016001600160401b038111828210171561017257610172610108565b604052818152838201602001851015610189575f5ffd5b8160208501602083015e5f918101602001919091529392505050565b5f606082840312156101b5575f5ffd5b604051606081016001600160401b03811182821017156101d7576101d7610108565b604052825190915081906001600160401b038111156101f4575f5ffd5b6102008582860161011c565b82525060208301516001600160401b0381111561021b575f5ffd5b6102278582860161011c565b60208301525060408301516001600160401b03811115610245575f5ffd5b6102518582860161011c565b6040830152505092915050565b80516001600160a01b0381168114610274575f5ffd5b919050565b5f5f5f5f5f5f5f5f5f5f6101408b8d031215610293575f5ffd5b8a516001600160401b038111156102a8575f5ffd5b6102b48d828e0161011c565b60208d0151909b5090506001600160401b038111156102d1575f5ffd5b6102dd8d828e016101a5565b9950505f60408c01519050809850505f60608c01519050809750505f60808c01519050809650505f60a08c01519050809550505f60c08c015190508094505061032860e08c0161025e565b92506103376101008c0161025e565b91506103466101208c0161025e565b90509295989b9194979a5092959850565b600181811c9082168061036b57607f821691505b60208210810361038957634e487b7160e01b5f52602260045260245ffd5b50919050565b601f8211156103d657805f5260205f20601f840160051c810160208510156103b45750805b601f840160051c820191505b818110156103d3575f81556001016103c0565b50505b505050565b81516001600160401b038111156103f4576103f4610108565b610408816104028454610357565b8461038f565b6020601f82116001811461043a575f83156104235750848201515b5f19600385901b1c1916600184901b1784556103d3565b5f84815260208120601f198516915b828110156104695787850151825560209485019460019092019101610449565b508482101561048657868401515f19600387901b60f8161c191681555b50505050600190811b01905550565b808201808211156104b457634e487b7160e01b5f52601160045260245ffd5b92915050565b6080516112b06104e75f395f818161029601528181610663015281816107230152610cf001526112b05ff3fe608060405234801561000f575f5ffd5b50600436106101a1575f3560e01c806393f1bd6d116100f3578063dff7d2c711610093578063eb8bbd281161006e578063eb8bbd281461035d578063f12a4a5314610365578063f14faf6f1461036e578063f99749ab14610381575f5ffd5b8063dff7d2c714610342578063e12e26771461034b578063e2cc8d0314610354575f5ffd5b8063b422b9b5116100ce578063b422b9b5146102eb578063c19d93fb14610300578063ca0cdea81461030d578063d6df096d1461032f575f5ffd5b806393f1bd6d146102b8578063968ed600146102da578063b1b0239f146102e3575f5ffd5b806353d746e21161015e57806369cc262e1161013957806369cc262e1461026c5780636e1da3ee1461027f578063714f49d31461028857806389a3027114610291575f5ffd5b806353d746e2146102075780635e2c19db1461023257806369bc2f1e14610264575f5ffd5b80631366e12b146101a55780631865c57d146101c15780631d8557d7146101d557806324600fc3146101df57806325c302e4146101e7578063516f279e146101f0575b5f5ffd5b6101ae600b5481565b6040519081526020015b60405180910390f35b60045460ff165b6040516101b89190610fee565b6101dd610396565b005b6101dd610525565b6101ae600a5481565b6101f8610783565b6040516101b893929190611042565b600e5461021a906001600160a01b031681565b6040516001600160a01b0390911681526020016101b8565b610254610240366004611084565b60126020525f908152604090205460ff1681565b60405190151581526020016101b8565b600a546101ae565b6101dd61027a3660046110b1565b61092b565b6101ae600c5481565b6101ae60075481565b61021a7f000000000000000000000000000000000000000000000000000000000000000081565b6102546102c6366004611084565b60116020525f908152604090205460ff1681565b6101ae60095481565b600b546101ae565b6102f3610a47565b6040516101b8919061111f565b6004546101c89060ff1681565b61025461031b366004611084565b60106020525f908152604090205460ff1681565b600f5461021a906001600160a01b031681565b6101ae60065481565b6101ae600d5481565b6101ae60085481565b6009546101ae565b6101ae60055481565b6101dd61037c36600461117e565b610c2c565b610389610e15565b6040516101b89190611195565b5f6004805460ff16908111156103ae576103ae610fda565b1480156103bd57506005544210155b156103f6576004805460ff191660019081179091556040515f51602061125b5f395f51905f52916103ed91610fee565b60405180910390a15b60016004805460ff169081111561040f5761040f610fda565b14801561041e57506006544210155b15610457576004805460ff191660029081179091556040515f51602061125b5f395f51905f529161044e91610fee565b60405180910390a15b60026004805460ff169081111561047057610470610fda565b14801561047f57506007544210155b156104c6576004805460ff19166003179055610499610ea0565b6004546040515f51602061125b5f395f51905f52916104bd9160ff90911690610fee565b60405180910390a15b60036004805460ff16908111156104df576104df610fda565b1480156104ee57506008544210155b15610523576004805460ff1916811781556040515f51602061125b5f395f51905f529161051a91610fee565b60405180910390a15b565b61052d610396565b60036004805460ff169081111561054657610546610fda565b146105935760405162461bcd60e51b8152602060048201526018602482015277086c2dae0c2d2cedc40e6e8c2e8eae640dad2e6dac2e8c6d60431b60448201526064015b60405180910390fd5b335f9081526011602052604090205460ff166105f15760405162461bcd60e51b815260206004820152601760248201527f4e6f74206120726567697374657265642076696374696d000000000000000000604482015260640161058a565b335f9081526012602052604090205460ff16156106445760405162461bcd60e51b815260206004820152601160248201527020b63932b0b23c903bb4ba34323930bbb760791b604482015260640161058a565b61064c610ea0565b6040516370a0823160e01b81523060048201525f907f00000000000000000000000000000000000000000000000000000000000000006001600160a01b0316906370a0823190602401602060405180830381865afa1580156106b0573d5f5f3e3d5ffd5b505050506040513d601f19601f820116820180604052508101906106d491906111a7565b600d54909150818111156106e55750805b335f908152601260205260408120805460ff19166001179055600c80548392906107109084906111d2565b9091555061074a90506001600160a01b037f0000000000000000000000000000000000000000000000000000000000000000163383610ecb565b60405181815233907f26536799ace2c3dbe12e638ec3ade6b4173dcf1289be0a58d51a5003015649bd9060200160405180910390a25050565b600180548190610792906111eb565b80601f01602080910402602001604051908101604052809291908181526020018280546107be906111eb565b80156108095780601f106107e057610100808354040283529160200191610809565b820191905f5260205f20905b8154815290600101906020018083116107ec57829003601f168201915b50505050509080600101805461081e906111eb565b80601f016020809104026020016040519081016040528092919081815260200182805461084a906111eb565b80156108955780601f1061086c57610100808354040283529160200191610895565b820191905f5260205f20905b81548152906001019060200180831161087857829003601f168201915b5050505050908060020180546108aa906111eb565b80601f01602080910402602001604051908101604052809291908181526020018280546108d6906111eb565b80156109215780601f106108f857610100808354040283529160200191610921565b820191905f5260205f20905b81548152906001019060200180831161090457829003601f168201915b5050505050905083565b610933610396565b60016004805460ff169081111561094c5761094c610fda565b146109995760405162461bcd60e51b815260206004820152601960248201527f526567697374726174696f6e73204e6f74207374617274656400000000000000604482015260640161058a565b335f9081526011602052604090205460ff16156109ed5760405162461bcd60e51b8152602060048201526012602482015271105b1c9958591e481c9959da5cdd195c995960721b604482015260640161058a565b335f908152601160205260408120805460ff19166001179055600b805491610a1483611223565b909155505060405133907f4d8fa85f6aec706b372edbbe19b5a933bc5513e8e0c05b0aa930d0731031bc8a905f90a25050565b610a6b60405180606001604052806060815260200160608152602001606081525090565b60016040518060600160405290815f82018054610a87906111eb565b80601f0160208091040260200160405190810160405280929190818152602001828054610ab3906111eb565b8015610afe5780601f10610ad557610100808354040283529160200191610afe565b820191905f5260205f20905b815481529060010190602001808311610ae157829003601f168201915b50505050508152602001600182018054610b17906111eb565b80601f0160208091040260200160405190810160405280929190818152602001828054610b43906111eb565b8015610b8e5780601f10610b6557610100808354040283529160200191610b8e565b820191905f5260205f20905b815481529060010190602001808311610b7157829003601f168201915b50505050508152602001600282018054610ba7906111eb565b80601f0160208091040260200160405190810160405280929190818152602001828054610bd3906111eb565b8015610c1e5780601f10610bf557610100808354040283529160200191610c1e565b820191905f5260205f20905b815481529060010190602001808311610c0157829003601f168201915b505050505081525050905090565b610c34610396565b5f6004805460ff1690811115610c4c57610c4c610fda565b14610c945760405162461bcd60e51b8152602060048201526018602482015277086c2dae0c2d2cedc40e6e8c2e8eae640dad2e6dac2e8c6d60431b604482015260640161058a565b5f8111610ce35760405162461bcd60e51b815260206004820152601760248201527f416d6f756e74206d75737420626520706f736974697665000000000000000000604482015260640161058a565b610d186001600160a01b037f000000000000000000000000000000000000000000000000000000000000000016333084610f2f565b8060095f828254610d2991906111d2565b9091555050335f9081526010602052604090205460ff16610ddd57335f908152601060205260408120805460ff19166001179055600a805491610d6b83611223565b9091555050600e546040516335313c2160e11b81523360048201526001600160a01b0390911690636a627842906024016020604051808303815f875af1158015610db7573d5f5f3e3d5ffd5b505050506040513d601f19601f82011682018060405250810190610ddb91906111a7565b505b60405181815233907f264f630d9efa0d07053a31163641d9fcc0adafc9d9e76f1c37c2ce3a558d2c529060200160405180910390a250565b5f8054610e21906111eb565b80601f0160208091040260200160405190810160405280929190818152602001828054610e4d906111eb565b8015610e985780601f10610e6f57610100808354040283529160200191610e98565b820191905f5260205f20905b815481529060010190602001808311610e7b57829003601f168201915b505050505081565b600d54158015610eb157505f600b54115b1561052357600b54600954610ec6919061123b565b600d55565b6040516001600160a01b03838116602483015260448201839052610f2a91859182169063a9059cbb906064015b604051602081830303815290604052915060e01b6020820180516001600160e01b038381831617835250505050610f6e565b505050565b6040516001600160a01b038481166024830152838116604483015260648201839052610f689186918216906323b872dd90608401610ef8565b50505050565b5f5f60205f8451602086015f885af180610f8d576040513d5f823e3d81fd5b50505f513d91508115610fa4578060011415610fb1565b6001600160a01b0384163b155b15610f6857604051635274afe760e01b81526001600160a01b038516600482015260240161058a565b634e487b7160e01b5f52602160045260245ffd5b602081016005831061100e57634e487b7160e01b5f52602160045260245ffd5b91905290565b5f81518084528060208401602086015e5f602082860101526020601f19601f83011685010191505092915050565b606081525f6110546060830186611014565b82810360208401526110668186611014565b9050828103604084015261107a8185611014565b9695505050505050565b5f60208284031215611094575f5ffd5b81356001600160a01b03811681146110aa575f5ffd5b9392505050565b5f5f602083850312156110c2575f5ffd5b823567ffffffffffffffff8111156110d8575f5ffd5b8301601f810185136110e8575f5ffd5b803567ffffffffffffffff8111156110fe575f5ffd5b85602082840101111561110f575f5ffd5b6020919091019590945092505050565b602081525f82516060602084015261113a6080840182611014565b90506020840151601f198483030160408501526111578282611014565b9150506040840151601f198483030160608501526111758282611014565b95945050505050565b5f6020828403121561118e575f5ffd5b5035919050565b602081525f6110aa6020830184611014565b5f602082840312156111b7575f5ffd5b5051919050565b634e487b7160e01b5f52601160045260245ffd5b808201808211156111e5576111e56111be565b92915050565b600181811c908216806111ff57607f821691505b60208210810361121d57634e487b7160e01b5f52602260045260245ffd5b50919050565b5f60018201611234576112346111be565b5060010190565b5f8261125557634e487b7160e01b5f52601260045260245ffd5b50049056fe551dc40198cc79684bb69e4931dba4ac16e4598792ee1c0a5000aeea366d7bb6a26469706673582212201814b3d0daa1ea1902bc30ff20fa4194ec754218756b3e85da2fa07e89de4b1064736f6c634300081c0033a2646970667358221220dee2b98f467bb85d56e71baa1825f445326acc758894334a0ea0d784d7997c3f64736f6c634300081c0033","linkReferences":{}},"methodIdentifiers":{"USDC()":"89a30271","daoGov()":"2764b758","deployDisasterRelief(string,(string,string,string),uint256,uint256,uint256,uint256,uint256)":"e68d61bf","disasterReliefContracts(uint256)":"08fc1034","donorBadge()":"53d746e2","getAllProposals()":"cceb68f5","getProposal(uint256)":"c7f758a8","isDisasterRelief(address)":"25f9f4ea","owner()":"8da5cb5b","setZKVerifier(address)":"c5090346","zkVerifier()":"d6df096d"},"id":42}