{"abi":[{"type":"constructor","inputs":[{"name":"_factory","type":"address","internalType":"address"},{"name":"_donorBadge","type":"address","internalType":"address"},{"name":"_daoGovernance","type":"address","internalType":"address"},{"name":"_usdc","type":"address","internalType":"address"}],"stateMutability":"nonpayable"},{"type":"function","name":"USDC","inputs":[],"outputs":[{"name":"","type":"address","internalType":"address"}],"stateMutability":"view"},{"type":"function","name":"allocateFunds","inputs":[{"name":"reliefContract","type":"address","internalType":"address"},{"name":"amount","type":"uint256","internalType":"uint256"}],"outputs":[],"stateMutability":"nonpayable"},{"type":"function","name":"daoGovernance","inputs":[],"outputs":[{"name":"","type":"address","internalType":"address"}],"stateMutability":"view"},{"type":"function","name":"donate","inputs":[{"name":"amount","type":"uint256","internalType":"uint256"}],"outputs":[],"stateMutability":"nonpayable"},{"type":"function","name":"donorBadge","inputs":[],"outputs":[{"name":"","type":"address","internalType":"contract GeneralDonorBadge"}],"stateMutability":"view"},{"type":"function","name":"donors","inputs":[{"name":"","type":"address","internalType":"address"}],"outputs":[{"name":"","type":"bool","internalType":"bool"}],"stateMutability":"view"},{"type":"function","name":"factory","inputs":[],"outputs":[{"name":"","type":"address","internalType":"contract IDisasterReliefFactory"}],"stateMutability":"view"},{"type":"function","name":"getBalance","inputs":[],"outputs":[{"name":"","type":"uint256","internalType":"uint256"}],"stateMutability":"view"},{"type":"event","name":"FundsAllocated","inputs":[{"name":"toContract","type":"address","indexed":true,"internalType":"address"},{"name":"amount","type":"uint256","indexed":false,"internalType":"uint256"}],"anonymous":false},{"type":"event","name":"FundsDeposited","inputs":[{"name":"from","type":"address","indexed":true,"internalType":"address"},{"name":"amount","type":"uint256","indexed":false,"internalType":"uint256"}],"anonymous":false},{"type":"event","name":"FundsWithdrawn","inputs":[{"name":"to","type":"address","indexed":true,"internalType":"address"},{"name":"amount","type":"uint256","indexed":false,"internalType":"uint256"}],"anonymous":false},{"type":"error","name":"SafeERC20FailedOperation","inputs":[{"name":"token","type":"address","internalType":"address"}]}],"bytecode":{"object":"0x608060405234801561000f575f5ffd5b5060405161093838038061093883398101604081905261002e91610209565b6001600160a01b0384166100895760405162461bcd60e51b815260206004820152601760248201527f496e76616c696420666163746f7279206164647265737300000000000000000060448201526064015b60405180910390fd5b6001600160a01b0383166100df5760405162461bcd60e51b815260206004820152601b60248201527f496e76616c696420646f6e6f72206261646765206164647265737300000000006044820152606401610080565b6001600160a01b0382166101355760405162461bcd60e51b815260206004820152601e60248201527f496e76616c69642044414f20676f7665726e616e6365206164647265737300006044820152606401610080565b600180546001600160a01b038681166001600160a01b031992831617909255600280548684169083161790556003805485841690831681179091555f805493851693909216831790915560405163095ea7b360e01b815260048101919091525f19602482015263095ea7b3906044016020604051808303815f875af11580156101c0573d5f5f3e3d5ffd5b505050506040513d601f19601f820116820180604052508101906101e4919061025a565b5050505050610280565b80516001600160a01b0381168114610204575f5ffd5b919050565b5f5f5f5f6080858703121561021c575f5ffd5b610225856101ee565b9350610233602086016101ee565b9250610241604086016101ee565b915061024f606086016101ee565b905092959194509250565b5f6020828403121561026a575f5ffd5b81518015158114610279575f5ffd5b9392505050565b6106ab8061028d5f395ff3fe608060405234801561000f575f5ffd5b5060043610610085575f3560e01c806389a302711161005857806389a30271146100f7578063c45a015514610109578063ca0cdea81461011c578063f14faf6f1461014e575f5ffd5b806312065fe014610089578063189ed356146100a45780633d4e5ddd146100b957806353d746e2146100e4575b5f5ffd5b610091610161565b6040519081526020015b60405180910390f35b6100b76100b23660046105e0565b6101d0565b005b6003546100cc906001600160a01b031681565b6040516001600160a01b03909116815260200161009b565b6002546100cc906001600160a01b031681565b5f546100cc906001600160a01b031681565b6001546100cc906001600160a01b031681565b61013e61012a366004610608565b60046020525f908152604090205460ff1681565b604051901515815260200161009b565b6100b761015c366004610628565b61037a565b5f80546040516370a0823160e01b81523060048201526001600160a01b03909116906370a0823190602401602060405180830381865afa1580156101a7573d5f5f3e3d5ffd5b505050506040513d601f19601f820116820180604052508101906101cb919061063f565b905090565b6003546001600160a01b031633146102195760405162461bcd60e51b81526020600482015260076024820152664e6f742044414f60c81b60448201526064015b60405180910390fd5b6001546040516312fcfa7560e11b81526001600160a01b038481166004830152909116906325f9f4ea90602401602060405180830381865afa158015610261573d5f5f3e3d5ffd5b505050506040513d601f19601f820116820180604052508101906102859190610656565b6102d15760405162461bcd60e51b815260206004820152601760248201527f496e76616c69642072656c69656620636f6e74726163740000000000000000006044820152606401610210565b6102d9610161565b81111561031d5760405162461bcd60e51b8152602060048201526012602482015271496e73756666696369656e742066756e647360701b6044820152606401610210565b5f54610333906001600160a01b031683836104b6565b816001600160a01b03167f870f86672db2c7b197484fa0218e97fe38eb7c89fd39ed2c4c910734c66182f88260405161036e91815260200190565b60405180910390a25050565b5f81116103c95760405162461bcd60e51b815260206004820152601760248201527f416d6f756e74206d75737420626520706f7369746976650000000000000000006044820152606401610210565b5f546103e0906001600160a01b031633308461051a565b335f9081526004602052604090205460ff1661047e57335f81815260046020819052604091829020805460ff1916600117905560025491516335313c2160e11b8152908101929092526001600160a01b031690636a627842906024016020604051808303815f875af1158015610458573d5f5f3e3d5ffd5b505050506040513d601f19601f8201168201806040525081019061047c919061063f565b505b60405181815233907f543ba50a5eec5e6178218e364b1d0f396157b3c8fa278522c2cb7fd99407d4749060200160405180910390a250565b6040516001600160a01b0383811660248301526044820183905261051591859182169063a9059cbb906064015b604051602081830303815290604052915060e01b6020820180516001600160e01b038381831617835250505050610559565b505050565b6040516001600160a01b0384811660248301528381166044830152606482018390526105539186918216906323b872dd906084016104e3565b50505050565b5f5f60205f8451602086015f885af180610578576040513d5f823e3d81fd5b50505f513d9150811561058f57806001141561059c565b6001600160a01b0384163b155b1561055357604051635274afe760e01b81526001600160a01b0385166004820152602401610210565b80356001600160a01b03811681146105db575f5ffd5b919050565b5f5f604083850312156105f1575f5ffd5b6105fa836105c5565b946020939093013593505050565b5f60208284031215610618575f5ffd5b610621826105c5565b9392505050565b5f60208284031215610638575f5ffd5b5035919050565b5f6020828403121561064f575f5ffd5b5051919050565b5f60208284031215610666575f5ffd5b81518015158114610621575f5ffdfea26469706673582212208fde8cfdf58f18d7d7a038e726f816f39e989fb167f2992dc11350f52d75188f64736f6c634300081c0033","linkReferences":{}},"methodIdentifiers":{"USDC()":"89a30271","allocateFunds(address,uint256)":"189ed356","daoGovernance()":"3d4e5ddd","donate(uint256)":"f14faf6f","donorBadge()":"53d746e2","donors(address)":"ca0cdea8","factory()":"c45a0155","getBalance()":"12065fe0"},"id":43}