{"abi":[{"type":"constructor","inputs":[],"stateMutability":"nonpayable"},{"type":"function","name":"approve","inputs":[{"name":"to","type":"address","internalType":"address"},{"name":"tokenId","type":"uint256","internalType":"uint256"}],"outputs":[],"stateMutability":"nonpayable"},{"type":"function","name":"balanceOf","inputs":[{"name":"owner","type":"address","internalType":"address"}],"outputs":[{"name":"","type":"uint256","internalType":"uint256"}],"stateMutability":"view"},{"type":"function","name":"escrowContract","inputs":[],"outputs":[{"name":"","type":"address","internalType":"address"}],"stateMutability":"view"},{"type":"function","name":"getApproved","inputs":[{"name":"tokenId","type":"uint256","internalType":"uint256"}],"outputs":[{"name":"","type":"address","internalType":"address"}],"stateMutability":"view"},{"type":"function","name":"isApprovedForAll","inputs":[{"name":"owner","type":"address","internalType":"address"},{"name":"operator","type":"address","internalType":"address"}],"outputs":[{"name":"","type":"bool","internalType":"bool"}],"stateMutability":"view"},{"type":"function","name":"mint","inputs":[{"name":"to","type":"address","internalType":"address"}],"outputs":[{"name":"","type":"uint256","internalType":"uint256"}],"stateMutability":"nonpayable"},{"type":"function","name":"name","inputs":[],"outputs":[{"name":"","type":"string","internalType":"string"}],"stateMutability":"view"},{"type":"function","name":"owner","inputs":[],"outputs":[{"name":"","type":"address","internalType":"address"}],"stateMutability":"view"},{"type":"function","name":"ownerOf","inputs":[{"name":"tokenId","type":"uint256","internalType":"uint256"}],"outputs":[{"name":"","type":"address","internalType":"address"}],"stateMutability":"view"},{"type":"function","name":"safeTransferFrom","inputs":[{"name":"from","type":"address","internalType":"address"},{"name":"to","type":"address","internalType":"address"},{"name":"tokenId","type":"uint256","internalType":"uint256"}],"outputs":[],"stateMutability":"nonpayable"},{"type":"function","name":"safeTransferFrom","inputs":[{"name":"from","type":"address","internalType":"address"},{"name":"to","type":"address","internalType":"address"},{"name":"tokenId","type":"uint256","internalType":"uint256"},{"name":"data","type":"bytes","internalType":"bytes"}],"outputs":[],"stateMutability":"nonpayable"},{"type":"function","name":"setAllowedContract","inputs":[{"name":"_escrowContract","type":"address","internalType":"address"}],"outputs":[],"stateMutability":"nonpayable"},{"type":"function","name":"setApprovalForAll","inputs":[{"name":"operator","type":"address","internalType":"address"},{"name":"approved","type":"bool","internalType":"bool"}],"outputs":[],"stateMutability":"nonpayable"},{"type":"function","name":"setBaseURI","inputs":[{"name":"newBaseURI","type":"string","internalType":"string"}],"outputs":[],"stateMutability":"nonpayable"},{"type":"function","name":"supportsInterface","inputs":[{"name":"interfaceId","type":"bytes4","internalType":"bytes4"}],"outputs":[{"name":"","type":"bool","internalType":"bool"}],"stateMutability":"view"},{"type":"function","name":"symbol","inputs":[],"outputs":[{"name":"","type":"string","internalType":"string"}],"stateMutability":"view"},{"type":"function","name":"tokenURI","inputs":[{"name":"tokenId","type":"uint256","internalType":"uint256"}],"outputs":[{"name":"","type":"string","internalType":"string"}],"stateMutability":"view"},{"type":"function","name":"totalSupply","inputs":[],"outputs":[{"name":"","type":"uint256","internalType":"uint256"}],"stateMutability":"view"},{"type":"function","name":"transferFrom","inputs":[{"name":"from","type":"address","internalType":"address"},{"name":"to","type":"address","internalType":"address"},{"name":"tokenId","type":"uint256","internalType":"uint256"}],"outputs":[],"stateMutability":"nonpayable"},{"type":"event","name":"Approval","inputs":[{"name":"owner","type":"address","indexed":true,"internalType":"address"},{"name":"approved","type":"address","indexed":true,"internalType":"address"},{"name":"tokenId","type":"uint256","indexed":true,"internalType":"uint256"}],"anonymous":false},{"type":"event","name":"ApprovalForAll","inputs":[{"name":"owner","type":"address","indexed":true,"internalType":"address"},{"name":"operator","type":"address","indexed":true,"internalType":"address"},{"name":"approved","type":"bool","indexed":false,"internalType":"bool"}],"anonymous":false},{"type":"event","name":"BadgeMinted","inputs":[{"name":"to","type":"address","indexed":true,"internalType":"address"},{"name":"tokenId","type":"uint256","indexed":true,"internalType":"uint256"}],"anonymous":false},{"type":"event","name":"Transfer","inputs":[{"name":"from","type":"address","indexed":true,"internalType":"address"},{"name":"to","type":"address","indexed":true,"internalType":"address"},{"name":"tokenId","type":"uint256","indexed":true,"internalType":"uint256"}],"anonymous":false},{"type":"error","name":"ERC721IncorrectOwner","inputs":[{"name":"sender","type":"address","internalType":"address"},{"name":"tokenId","type":"uint256","internalType":"uint256"},{"name":"owner","type":"address","internalType":"address"}]},{"type":"error","name":"ERC721InsufficientApproval","inputs":[{"name":"operator","type":"address","internalType":"address"},{"name":"tokenId","type":"uint256","internalType":"uint256"}]},{"type":"error","name":"ERC721InvalidApprover","inputs":[{"name":"approver","type":"address","internalType":"address"}]},{"type":"error","name":"ERC721InvalidOperator","inputs":[{"name":"operator","type":"address","internalType":"address"}]},{"type":"error","name":"ERC721InvalidOwner","inputs":[{"name":"owner","type":"address","internalType":"address"}]},{"type":"error","name":"ERC721InvalidReceiver","inputs":[{"name":"receiver","type":"address","internalType":"address"}]},{"type":"error","name":"ERC721InvalidSender","inputs":[{"name":"sender","type":"address","internalType":"address"}]},{"type":"error","name":"ERC721NonexistentToken","inputs":[{"name":"tokenId","type":"uint256","internalType":"uint256"}]}],"bytecode":{"object":"0x608060405234801561000f575f5ffd5b506040518060400160405280601181526020017047656e6572616c446f6e6f72426164676560781b8152506040518060400160405280600381526020016223a22160e91b815250815f90816100649190610123565b5060016100718282610123565b5050600780546001600160a01b03191633179055506101dd565b634e487b7160e01b5f52604160045260245ffd5b600181811c908216806100b357607f821691505b6020821081036100d157634e487b7160e01b5f52602260045260245ffd5b50919050565b601f82111561011e57805f5260205f20601f840160051c810160208510156100fc5750805b601f840160051c820191505b8181101561011b575f8155600101610108565b50505b505050565b81516001600160401b0381111561013c5761013c61008b565b6101508161014a845461009f565b846100d7565b6020601f821160018114610182575f831561016b5750848201515b5f19600385901b1c1916600184901b17845561011b565b5f84815260208120601f198516915b828110156101b15787850151825560209485019460019092019101610191565b50848210156101ce57868401515f19600387901b60f8161c191681555b50505050600190811b01905550565b6112ec806101ea5f395ff3fe608060405234801561000f575f5ffd5b506004361061011c575f3560e01c80636a627842116100a9578063a22cb4651161006e578063a22cb4651461024f578063b88d4fde14610262578063c87b56dd14610275578063e42a96e714610288578063e985e9c51461029b575f5ffd5b80636a627842146101fb57806370a082311461020e57806386e32ed0146102215780638da5cb5b1461023457806395d89b4114610247575f5ffd5b806318160ddd116100ef57806318160ddd1461019d57806323b872dd146101af57806342842e0e146101c257806355f804b3146101d55780636352211e146101e8575f5ffd5b806301ffc9a71461012057806306fdde0314610148578063081812fc1461015d578063095ea7b314610188575b5f5ffd5b61013361012e366004610e25565b6102ae565b60405190151581526020015b60405180910390f35b6101506102ff565b60405161013f9190610e6e565b61017061016b366004610e80565b61038e565b6040516001600160a01b03909116815260200161013f565b61019b610196366004610ead565b6103b5565b005b6006545b60405190815260200161013f565b61019b6101bd366004610ed5565b6103c4565b61019b6101d0366004610ed5565b610452565b61019b6101e3366004610f9a565b610471565b6101706101f6366004610e80565b6104c3565b6101a1610209366004610fdf565b6104cd565b6101a161021c366004610fdf565b61057d565b61019b61022f366004610fdf565b6105c2565b600754610170906001600160a01b031681565b610150610679565b61019b61025d366004610ff8565b610688565b61019b610270366004611031565b610693565b610150610283366004610e80565b6106ab565b600854610170906001600160a01b031681565b6101336102a93660046110a8565b610710565b5f6001600160e01b031982166380ac58cd60e01b14806102de57506001600160e01b03198216635b5e139f60e01b145b806102f957506301ffc9a760e01b6001600160e01b03198316145b92915050565b60605f805461030d906110d9565b80601f0160208091040260200160405190810160405280929190818152602001828054610339906110d9565b80156103845780601f1061035b57610100808354040283529160200191610384565b820191905f5260205f20905b81548152906001019060200180831161036757829003601f168201915b5050505050905090565b5f6103988261073d565b505f828152600460205260409020546001600160a01b03166102f9565b6103c0828233610775565b5050565b6001600160a01b0382166103f257604051633250574960e11b81525f60048201526024015b60405180910390fd5b5f6103fe838333610782565b9050836001600160a01b0316816001600160a01b03161461044c576040516364283d7b60e01b81526001600160a01b03808616600483015260248201849052821660448201526064016103e9565b50505050565b61046c83838360405180602001604052805f815250610693565b505050565b6007546001600160a01b031633146104b75760405162461bcd60e51b81526020600482015260096024820152682737ba1037bbb732b960b91b60448201526064016103e9565b60096103c08282611155565b5f6102f98261073d565b6008545f906001600160a01b031633146105205760405162461bcd60e51b815260206004820152601460248201527313db9b1e48195cd8dc9bddc818d85b881b5a5b9d60621b60448201526064016103e9565b5f60065f815461052f90611210565b918290555090506105408382610874565b60405181906001600160a01b038516907fc5e5b314108c1f776c2302351b8278910ddb812b122b2717b1bc973146145e9a905f90a390505b919050565b5f6001600160a01b0382166105a7576040516322718ad960e21b81525f60048201526024016103e9565b506001600160a01b03165f9081526003602052604090205490565b6007546001600160a01b031633146106085760405162461bcd60e51b81526020600482015260096024820152682737ba1037bbb732b960b91b60448201526064016103e9565b6001600160a01b0381166106575760405162461bcd60e51b8152602060048201526016602482015275496e76616c696420657363726f77206164647265737360501b60448201526064016103e9565b600880546001600160a01b0319166001600160a01b0392909216919091179055565b60606001805461030d906110d9565b6103c033838361088d565b61069e8484846103c4565b61044c338585858561092b565b60606106b68261073d565b505f6106c0610a53565b90505f8151116106de5760405180602001604052805f815250610709565b806106e884610a62565b6040516020016106f992919061124b565b6040516020818303038152906040525b9392505050565b6001600160a01b039182165f90815260056020908152604080832093909416825291909152205460ff1690565b5f818152600260205260408120546001600160a01b0316806102f957604051637e27328960e01b8152600481018490526024016103e9565b61046c8383836001610af2565b5f828152600260205260408120546001600160a01b03908116908316156107ae576107ae818486610bf6565b6001600160a01b038116156107e8576107c95f855f5f610af2565b6001600160a01b0381165f90815260036020526040902080545f190190555b6001600160a01b03851615610816576001600160a01b0385165f908152600360205260409020805460010190555b5f8481526002602052604080822080546001600160a01b0319166001600160a01b0389811691821790925591518793918516917fddf252ad1be2c89b69c2b068fc378daa952ba7f163c4a11628f55a4df523b3ef91a4949350505050565b6103c0828260405180602001604052805f815250610c5a565b6001600160a01b0382166108bf57604051630b61174360e31b81526001600160a01b03831660048201526024016103e9565b6001600160a01b038381165f81815260056020908152604080832094871680845294825291829020805460ff191686151590811790915591519182527f17307eab39ab6107e8899845ad3d59bd9653f200f220920489ca2b5937696c31910160405180910390a3505050565b6001600160a01b0383163b15610a4c57604051630a85bd0160e11b81526001600160a01b0384169063150b7a029061096d90889088908790879060040161125f565b6020604051808303815f875af19250505080156109a7575060408051601f3d908101601f191682019092526109a49181019061129b565b60015b610a0e573d8080156109d4576040519150601f19603f3d011682016040523d82523d5f602084013e6109d9565b606091505b5080515f03610a0657604051633250574960e11b81526001600160a01b03851660048201526024016103e9565b805181602001fd5b6001600160e01b03198116630a85bd0160e11b14610a4a57604051633250574960e11b81526001600160a01b03851660048201526024016103e9565b505b5050505050565b60606009805461030d906110d9565b60605f610a6e83610c71565b60010190505f8167ffffffffffffffff811115610a8d57610a8d610f0f565b6040519080825280601f01601f191660200182016040528015610ab7576020820181803683370190505b5090508181016020015b5f19016f181899199a1a9b1b9c1cb0b131b232b360811b600a86061a8153600a8504945084610ac157509392505050565b8080610b0657506001600160a01b03821615155b15610bc7575f610b158461073d565b90506001600160a01b03831615801590610b415750826001600160a01b0316816001600160a01b031614155b8015610b545750610b528184610710565b155b15610b7d5760405163a9fbf51f60e01b81526001600160a01b03841660048201526024016103e9565b8115610bc55783856001600160a01b0316826001600160a01b03167f8c5be1e5ebec7d5bd14f71427d1e84f3dd0314c0f7b2291e5b200ac8c7c3b92560405160405180910390a45b505b50505f90815260046020526040902080546001600160a01b0319166001600160a01b0392909216919091179055565b610c01838383610d48565b61046c576001600160a01b038316610c2f57604051637e27328960e01b8152600481018290526024016103e9565b60405163177e802f60e01b81526001600160a01b0383166004820152602481018290526044016103e9565b610c648383610dac565b61046c335f85858561092b565b5f8072184f03e93ff9f4daa797ed6e38ed64bf6a1f0160401b8310610caf5772184f03e93ff9f4daa797ed6e38ed64bf6a1f0160401b830492506040015b6d04ee2d6d415b85acef81000000008310610cdb576d04ee2d6d415b85acef8100000000830492506020015b662386f26fc100008310610cf957662386f26fc10000830492506010015b6305f5e1008310610d11576305f5e100830492506008015b6127108310610d2557612710830492506004015b60648310610d37576064830492506002015b600a83106102f95760010192915050565b5f6001600160a01b03831615801590610da45750826001600160a01b0316846001600160a01b03161480610d815750610d818484610710565b80610da457505f828152600460205260409020546001600160a01b038481169116145b949350505050565b6001600160a01b038216610dd557604051633250574960e11b81525f60048201526024016103e9565b5f610de183835f610782565b90506001600160a01b0381161561046c576040516339e3563760e11b81525f60048201526024016103e9565b6001600160e01b031981168114610e22575f5ffd5b50565b5f60208284031215610e35575f5ffd5b813561070981610e0d565b5f81518084528060208401602086015e5f602082860101526020601f19601f83011685010191505092915050565b602081525f6107096020830184610e40565b5f60208284031215610e90575f5ffd5b5035919050565b80356001600160a01b0381168114610578575f5ffd5b5f5f60408385031215610ebe575f5ffd5b610ec783610e97565b946020939093013593505050565b5f5f5f60608486031215610ee7575f5ffd5b610ef084610e97565b9250610efe60208501610e97565b929592945050506040919091013590565b634e487b7160e01b5f52604160045260245ffd5b5f5f67ffffffffffffffff841115610f3d57610f3d610f0f565b50604051601f19601f85018116603f0116810181811067ffffffffffffffff82111715610f6c57610f6c610f0f565b604052838152905080828401851015610f83575f5ffd5b838360208301375f60208583010152509392505050565b5f60208284031215610faa575f5ffd5b813567ffffffffffffffff811115610fc0575f5ffd5b8201601f81018413610fd0575f5ffd5b610da484823560208401610f23565b5f60208284031215610fef575f5ffd5b61070982610e97565b5f5f60408385031215611009575f5ffd5b61101283610e97565b915060208301358015158114611026575f5ffd5b809150509250929050565b5f5f5f5f60808587031215611044575f5ffd5b61104d85610e97565b935061105b60208601610e97565b925060408501359150606085013567ffffffffffffffff81111561107d575f5ffd5b8501601f8101871361108d575f5ffd5b61109c87823560208401610f23565b91505092959194509250565b5f5f604083850312156110b9575f5ffd5b6110c283610e97565b91506110d060208401610e97565b90509250929050565b600181811c908216806110ed57607f821691505b60208210810361110b57634e487b7160e01b5f52602260045260245ffd5b50919050565b601f82111561046c57805f5260205f20601f840160051c810160208510156111365750805b601f840160051c820191505b81811015610a4c575f8155600101611142565b815167ffffffffffffffff81111561116f5761116f610f0f565b6111838161117d84546110d9565b84611111565b6020601f8211600181146111b5575f831561119e5750848201515b5f19600385901b1c1916600184901b178455610a4c565b5f84815260208120601f198516915b828110156111e457878501518255602094850194600190920191016111c4565b508482101561120157868401515f19600387901b60f8161c191681555b50505050600190811b01905550565b5f6001820161122d57634e487b7160e01b5f52601160045260245ffd5b5060010190565b5f81518060208401855e5f93019283525090919050565b5f610da46112598386611234565b84611234565b6001600160a01b03858116825284166020820152604081018390526080606082018190525f9061129190830184610e40565b9695505050505050565b5f602082840312156112ab575f5ffd5b815161070981610e0d56fea2646970667358221220dc34d558613734ae3f19bc521924ee6cd2905521cb8f2dbd749a3838e999629164736f6c634300081c0033","linkReferences":{}},"methodIdentifiers":{"approve(address,uint256)":"095ea7b3","balanceOf(address)":"70a08231","escrowContract()":"e42a96e7","getApproved(uint256)":"081812fc","isApprovedForAll(address,address)":"e985e9c5","mint(address)":"6a627842","name()":"06fdde03","owner()":"8da5cb5b","ownerOf(uint256)":"6352211e","safeTransferFrom(address,address,uint256)":"42842e0e","safeTransferFrom(address,address,uint256,bytes)":"b88d4fde","setAllowedContract(address)":"86e32ed0","setApprovalForAll(address,bool)":"a22cb465","setBaseURI(string)":"55f804b3","supportsInterface(bytes4)":"01ffc9a7","symbol()":"95d89b41","tokenURI(uint256)":"c87b56dd","totalSupply()":"18160ddd","transferFrom(address,address,uint256)":"23b872dd"},"id":44}